{
  "contractName": "Dex",
  "abi": [
    {
      "anonymous": false,
      "inputs": [
        {
          "indexed": true,
          "internalType": "address",
          "name": "previousOwner",
          "type": "address"
        },
        {
          "indexed": true,
          "internalType": "address",
          "name": "newOwner",
          "type": "address"
        }
      ],
      "name": "OwnershipTransferred",
      "type": "event"
    },
    {
      "inputs": [
        {
          "internalType": "bytes32",
          "name": "_ticker",
          "type": "bytes32"
        },
        {
          "internalType": "address",
          "name": "_tokenAddress",
          "type": "address"
        }
      ],
      "name": "addToken",
      "outputs": [],
      "stateMutability": "nonpayable",
      "type": "function"
    },
    {
      "inputs": [
        {
          "internalType": "address",
          "name": "",
          "type": "address"
        },
        {
          "internalType": "bytes32",
          "name": "",
          "type": "bytes32"
        }
      ],
      "name": "balances",
      "outputs": [
        {
          "internalType": "uint256",
          "name": "",
          "type": "uint256"
        }
      ],
      "stateMutability": "view",
      "type": "function"
    },
    {
      "inputs": [
        {
          "internalType": "uint256",
          "name": "_amount",
          "type": "uint256"
        },
        {
          "internalType": "bytes32",
          "name": "_ticker",
          "type": "bytes32"
        }
      ],
      "name": "deposit",
      "outputs": [],
      "stateMutability": "nonpayable",
      "type": "function"
    },
    {
      "inputs": [],
      "name": "depositEth",
      "outputs": [],
      "stateMutability": "payable",
      "type": "function"
    },
    {
      "inputs": [],
      "name": "nextOrderId",
      "outputs": [
        {
          "internalType": "uint256",
          "name": "",
          "type": "uint256"
        }
      ],
      "stateMutability": "view",
      "type": "function"
    },
    {
      "inputs": [
        {
          "internalType": "bytes32",
          "name": "",
          "type": "bytes32"
        },
        {
          "internalType": "uint256",
          "name": "",
          "type": "uint256"
        },
        {
          "internalType": "uint256",
          "name": "",
          "type": "uint256"
        }
      ],
      "name": "orderBook",
      "outputs": [
        {
          "internalType": "uint256",
          "name": "id",
          "type": "uint256"
        },
        {
          "internalType": "address",
          "name": "trader",
          "type": "address"
        },
        {
          "internalType": "enum Dex.Side",
          "name": "side",
          "type": "uint8"
        },
        {
          "internalType": "bytes32",
          "name": "ticker",
          "type": "bytes32"
        },
        {
          "internalType": "uint256",
          "name": "amount",
          "type": "uint256"
        },
        {
          "internalType": "uint256",
          "name": "price",
          "type": "uint256"
        },
        {
          "internalType": "uint256",
          "name": "filled",
          "type": "uint256"
        }
      ],
      "stateMutability": "view",
      "type": "function"
    },
    {
      "inputs": [],
      "name": "owner",
      "outputs": [
        {
          "internalType": "address",
          "name": "",
          "type": "address"
        }
      ],
      "stateMutability": "view",
      "type": "function"
    },
    {
      "inputs": [],
      "name": "renounceOwnership",
      "outputs": [],
      "stateMutability": "nonpayable",
      "type": "function"
    },
    {
      "inputs": [
        {
          "internalType": "uint256",
          "name": "",
          "type": "uint256"
        }
      ],
      "name": "tokenList",
      "outputs": [
        {
          "internalType": "bytes32",
          "name": "",
          "type": "bytes32"
        }
      ],
      "stateMutability": "view",
      "type": "function"
    },
    {
      "inputs": [
        {
          "internalType": "bytes32",
          "name": "",
          "type": "bytes32"
        }
      ],
      "name": "tokenMapping",
      "outputs": [
        {
          "internalType": "bytes32",
          "name": "ticker",
          "type": "bytes32"
        },
        {
          "internalType": "address",
          "name": "tokenAddress",
          "type": "address"
        }
      ],
      "stateMutability": "view",
      "type": "function"
    },
    {
      "inputs": [
        {
          "internalType": "address",
          "name": "newOwner",
          "type": "address"
        }
      ],
      "name": "transferOwnership",
      "outputs": [],
      "stateMutability": "nonpayable",
      "type": "function"
    },
    {
      "inputs": [
        {
          "internalType": "uint256",
          "name": "_amount",
          "type": "uint256"
        },
        {
          "internalType": "bytes32",
          "name": "_ticker",
          "type": "bytes32"
        }
      ],
      "name": "withdraw",
      "outputs": [],
      "stateMutability": "nonpayable",
      "type": "function"
    },
    {
      "inputs": [
        {
          "internalType": "uint256",
          "name": "_amount",
          "type": "uint256"
        }
      ],
      "name": "withdrawEth",
      "outputs": [],
      "stateMutability": "nonpayable",
      "type": "function"
    },
    {
      "inputs": [
        {
          "internalType": "bytes32",
          "name": "ticker",
          "type": "bytes32"
        },
        {
          "internalType": "enum Dex.Side",
          "name": "side",
          "type": "uint8"
        }
      ],
      "name": "getOrderBook",
      "outputs": [
        {
          "components": [
            {
              "internalType": "uint256",
              "name": "id",
              "type": "uint256"
            },
            {
              "internalType": "address",
              "name": "trader",
              "type": "address"
            },
            {
              "internalType": "enum Dex.Side",
              "name": "side",
              "type": "uint8"
            },
            {
              "internalType": "bytes32",
              "name": "ticker",
              "type": "bytes32"
            },
            {
              "internalType": "uint256",
              "name": "amount",
              "type": "uint256"
            },
            {
              "internalType": "uint256",
              "name": "price",
              "type": "uint256"
            },
            {
              "internalType": "uint256",
              "name": "filled",
              "type": "uint256"
            }
          ],
          "internalType": "struct Dex.Order[]",
          "name": "",
          "type": "tuple[]"
        }
      ],
      "stateMutability": "view",
      "type": "function"
    },
    {
      "inputs": [
        {
          "internalType": "bytes32",
          "name": "ticker",
          "type": "bytes32"
        },
        {
          "internalType": "enum Dex.Side",
          "name": "side",
          "type": "uint8"
        },
        {
          "internalType": "uint256",
          "name": "amount",
          "type": "uint256"
        },
        {
          "internalType": "uint256",
          "name": "price",
          "type": "uint256"
        }
      ],
      "name": "createLimitOrder",
      "outputs": [],
      "stateMutability": "nonpayable",
      "type": "function"
    },
    {
      "inputs": [
        {
          "internalType": "enum Dex.Side",
          "name": "side",
          "type": "uint8"
        },
        {
          "internalType": "bytes32",
          "name": "ticker",
          "type": "bytes32"
        },
        {
          "internalType": "uint256",
          "name": "amount",
          "type": "uint256"
        }
      ],
      "name": "createMarketOrder",
      "outputs": [],
      "stateMutability": "nonpayable",
      "type": "function"
    }
  ],
  "bytecode": "0x608060405260006004553480156200001657600080fd5b50600062000029620000cd60201b60201c565b9050806000806101000a81548173ffffffffffffffffffffffffffffffffffffffff021916908373ffffffffffffffffffffffffffffffffffffffff1602179055508073ffffffffffffffffffffffffffffffffffffffff16600073ffffffffffffffffffffffffffffffffffffffff167f8be0079c531659141344cd1fd0a4f28419497f9722a3daafe3b4186f6b6457e060405160405180910390a350620000d5565b600033905090565b613fa380620000e56000396000f3fe6080604052600436106100f35760003560e01c806399ec2f1c1161008a578063c311d04911610059578063c311d04914610322578063c9630cb01461034b578063ed25c4d314610374578063f2fde38b1461039d576100f3565b806399ec2f1c146102565780639ead72221461027f578063a8d2021a146102bc578063ba58ea68146102e5576100f3565b8063667cb4ba116100c6578063667cb4ba146101ad578063715018a6146101eb5780638da5cb5b146102025780639776aacf1461022d576100f3565b80630bb431b6146100f85780631f14df691461013b5780632a58b33014610178578063439370b1146101a3575b600080fd5b34801561010457600080fd5b5061011f600480360381019061011a9190613605565b6103c6565b6040516101329796959493929190613b07565b60405180910390f35b34801561014757600080fd5b50610162600480360381019061015d919061349c565b61045f565b60405161016f9190613aec565b60405180910390f35b34801561018457600080fd5b5061018d610484565b60405161019a9190613aec565b60405180910390f35b6101ab61048a565b005b3480156101b957600080fd5b506101d460048036038101906101cf9190613501565b610583565b6040516101e2929190613a23565b60405180910390f35b3480156101f757600080fd5b506102006105c7565b005b34801561020e57600080fd5b50610217610701565b604051610224919061396b565b60405180910390f35b34801561023957600080fd5b50610254600480360381019061024f919061352a565b61072a565b005b34801561026257600080fd5b5061027d60048036038101906102789190613654565b610865565b005b34801561028b57600080fd5b506102a660048036038101906102a191906136a3565b611a4e565b6040516102b39190613a08565b60405180910390f35b3480156102c857600080fd5b506102e360048036038101906102de91906136cc565b611a72565b005b3480156102f157600080fd5b5061030c60048036038101906103079190613566565b611d2c565b60405161031991906139e6565b60405180910390f35b34801561032e57600080fd5b50610349600480360381019061034491906136a3565b611ef7565b005b34801561035757600080fd5b50610372600480360381019061036d91906136cc565b61210d565b005b34801561038057600080fd5b5061039b600480360381019061039691906135a2565b612336565b005b3480156103a957600080fd5b506103c460048036038101906103bf9190613473565b613217565b005b600560205282600052604060002060205281600052604060002081815481106103ee57600080fd5b906000526020600020906006020160009250925050508060000154908060010160009054906101000a900473ffffffffffffffffffffffffffffffffffffffff16908060010160149054906101000a900460ff16908060020154908060030154908060040154908060050154905087565b6003602052816000526040600020602052806000526040600020600091509150505481565b60045481565b61050d34600360003373ffffffffffffffffffffffffffffffffffffffff1673ffffffffffffffffffffffffffffffffffffffff16815260200190815260200160002060007f45544800000000000000000000000000000000000000000000000000000000008152602001908152602001600020546133c090919063ffffffff16565b600360003373ffffffffffffffffffffffffffffffffffffffff1673ffffffffffffffffffffffffffffffffffffffff16815260200190815260200160002060007f4554480000000000000000000000000000000000000000000000000000000000815260200190815260200160002081905550565b60016020528060005260406000206000915090508060000154908060010160009054906101000a900473ffffffffffffffffffffffffffffffffffffffff16905082565b6105cf6133d6565b73ffffffffffffffffffffffffffffffffffffffff166105ed610701565b73ffffffffffffffffffffffffffffffffffffffff1614610643576040517f08c379a000000000000000000000000000000000000000000000000000000000815260040161063a90613a8c565b60405180910390fd5b600073ffffffffffffffffffffffffffffffffffffffff1660008054906101000a900473ffffffffffffffffffffffffffffffffffffffff1673ffffffffffffffffffffffffffffffffffffffff167f8be0079c531659141344cd1fd0a4f28419497f9722a3daafe3b4186f6b6457e060405160405180910390a360008060006101000a81548173ffffffffffffffffffffffffffffffffffffffff021916908373ffffffffffffffffffffffffffffffffffffffff160217905550565b60008060009054906101000a900473ffffffffffffffffffffffffffffffffffffffff16905090565b6107326133d6565b73ffffffffffffffffffffffffffffffffffffffff16610750610701565b73ffffffffffffffffffffffffffffffffffffffff16146107a6576040517f08c379a000000000000000000000000000000000000000000000000000000000815260040161079d90613a8c565b60405180910390fd5b60405180604001604052808381526020018273ffffffffffffffffffffffffffffffffffffffff16815250600160008481526020019081526020016000206000820151816000015560208201518160010160006101000a81548173ffffffffffffffffffffffffffffffffffffffff021916908373ffffffffffffffffffffffffffffffffffffffff16021790555090505060028290806001815401808255809150506001900390600052602060002001600090919091909150555050565b60018081111561089e577f4e487b7100000000000000000000000000000000000000000000000000000000600052602160045260246000fd5b8360018111156108d7577f4e487b7100000000000000000000000000000000000000000000000000000000600052602160045260246000fd5b14156109715780600360003373ffffffffffffffffffffffffffffffffffffffff1673ffffffffffffffffffffffffffffffffffffffff1681526020019081526020016000206000848152602001908152602001600020541015610970576040517f08c379a000000000000000000000000000000000000000000000000000000000815260040161096790613aac565b60405180910390fd5b5b60008060018111156109ac577f4e487b7100000000000000000000000000000000000000000000000000000000600052602160045260246000fd5b8460018111156109e5577f4e487b7100000000000000000000000000000000000000000000000000000000600052602160045260246000fd5b14156109f457600190506109f9565b600090505b600060056000858152602001908152602001600020600083815260200190815260200160002090506000805b828054905081108015610a3757508482105b156117c9576000610a5183876133de90919063ffffffff16565b90506000610afc858481548110610a91577f4e487b7100000000000000000000000000000000000000000000000000000000600052603260045260246000fd5b906000526020600020906006020160050154868581548110610adc577f4e487b7100000000000000000000000000000000000000000000000000000000600052603260045260246000fd5b9060005260206000209060060201600301546133de90919063ffffffff16565b9050600082821115610b1057829050610b14565b8190505b610b2781866133c090919063ffffffff16565b9450610b8681878681548110610b66577f4e487b7100000000000000000000000000000000000000000000000000000000600052603260045260246000fd5b9060005260206000209060060201600501546133c090919063ffffffff16565b868581548110610bbf577f4e487b7100000000000000000000000000000000000000000000000000000000600052603260045260246000fd5b9060005260206000209060060201600501819055506000610c33878681548110610c12577f4e487b7100000000000000000000000000000000000000000000000000000000600052603260045260246000fd5b906000526020600020906006020160040154836133f490919063ffffffff16565b905060006001811115610c6f577f4e487b7100000000000000000000000000000000000000000000000000000000600052602160045260246000fd5b8b6001811115610ca8577f4e487b7100000000000000000000000000000000000000000000000000000000600052602160045260246000fd5b14156112345780600360003373ffffffffffffffffffffffffffffffffffffffff1673ffffffffffffffffffffffffffffffffffffffff16815260200190815260200160002060007f45544800000000000000000000000000000000000000000000000000000000008152602001908152602001600020541015610d2b57600080fd5b610dae81600360003373ffffffffffffffffffffffffffffffffffffffff1673ffffffffffffffffffffffffffffffffffffffff16815260200190815260200160002060007f45544800000000000000000000000000000000000000000000000000000000008152602001908152602001600020546133de90919063ffffffff16565b600360003373ffffffffffffffffffffffffffffffffffffffff1673ffffffffffffffffffffffffffffffffffffffff16815260200190815260200160002060007f4554480000000000000000000000000000000000000000000000000000000000815260200190815260200160002081905550610f0f81600360008a8981548110610e63577f4e487b7100000000000000000000000000000000000000000000000000000000600052603260045260246000fd5b906000526020600020906006020160010160009054906101000a900473ffffffffffffffffffffffffffffffffffffffff1673ffffffffffffffffffffffffffffffffffffffff1673ffffffffffffffffffffffffffffffffffffffff16815260200190815260200160002060007f45544800000000000000000000000000000000000000000000000000000000008152602001908152602001600020546133c090919063ffffffff16565b60036000898881548110610f4c577f4e487b7100000000000000000000000000000000000000000000000000000000600052603260045260246000fd5b906000526020600020906006020160010160009054906101000a900473ffffffffffffffffffffffffffffffffffffffff1673ffffffffffffffffffffffffffffffffffffffff1673ffffffffffffffffffffffffffffffffffffffff16815260200190815260200160002060007f455448000000000000000000000000000000000000000000000000000000000081526020019081526020016000208190555061105082600360003373ffffffffffffffffffffffffffffffffffffffff1673ffffffffffffffffffffffffffffffffffffffff16815260200190815260200160002060008d8152602001908152602001600020546133c090919063ffffffff16565b600360003373ffffffffffffffffffffffffffffffffffffffff1673ffffffffffffffffffffffffffffffffffffffff16815260200190815260200160002060008c81526020019081526020016000208190555061117182600360008a89815481106110e5577f4e487b7100000000000000000000000000000000000000000000000000000000600052603260045260246000fd5b906000526020600020906006020160010160009054906101000a900473ffffffffffffffffffffffffffffffffffffffff1673ffffffffffffffffffffffffffffffffffffffff1673ffffffffffffffffffffffffffffffffffffffff16815260200190815260200160002060008d8152602001908152602001600020546133de90919063ffffffff16565b600360008988815481106111ae577f4e487b7100000000000000000000000000000000000000000000000000000000600052603260045260246000fd5b906000526020600020906006020160010160009054906101000a900473ffffffffffffffffffffffffffffffffffffffff1673ffffffffffffffffffffffffffffffffffffffff1673ffffffffffffffffffffffffffffffffffffffff16815260200190815260200160002060008c8152602001908152602001600020819055506117b2565b60018081111561126d577f4e487b7100000000000000000000000000000000000000000000000000000000600052602160045260246000fd5b8b60018111156112a6577f4e487b7100000000000000000000000000000000000000000000000000000000600052602160045260246000fd5b14156117b15761132f81600360003373ffffffffffffffffffffffffffffffffffffffff1673ffffffffffffffffffffffffffffffffffffffff16815260200190815260200160002060007f45544800000000000000000000000000000000000000000000000000000000008152602001908152602001600020546133c090919063ffffffff16565b600360003373ffffffffffffffffffffffffffffffffffffffff1673ffffffffffffffffffffffffffffffffffffffff16815260200190815260200160002060007f455448000000000000000000000000000000000000000000000000000000000081526020019081526020016000208190555061149081600360008a89815481106113e4577f4e487b7100000000000000000000000000000000000000000000000000000000600052603260045260246000fd5b906000526020600020906006020160010160009054906101000a900473ffffffffffffffffffffffffffffffffffffffff1673ffffffffffffffffffffffffffffffffffffffff1673ffffffffffffffffffffffffffffffffffffffff16815260200190815260200160002060007f45544800000000000000000000000000000000000000000000000000000000008152602001908152602001600020546133de90919063ffffffff16565b600360008988815481106114cd577f4e487b7100000000000000000000000000000000000000000000000000000000600052603260045260246000fd5b906000526020600020906006020160010160009054906101000a900473ffffffffffffffffffffffffffffffffffffffff1673ffffffffffffffffffffffffffffffffffffffff1673ffffffffffffffffffffffffffffffffffffffff16815260200190815260200160002060007f45544800000000000000000000000000000000000000000000000000000000008152602001908152602001600020819055506115d182600360003373ffffffffffffffffffffffffffffffffffffffff1673ffffffffffffffffffffffffffffffffffffffff16815260200190815260200160002060008d8152602001908152602001600020546133de90919063ffffffff16565b600360003373ffffffffffffffffffffffffffffffffffffffff1673ffffffffffffffffffffffffffffffffffffffff16815260200190815260200160002060008c8152602001908152602001600020819055506116f282600360008a8981548110611666577f4e487b7100000000000000000000000000000000000000000000000000000000600052603260045260246000fd5b906000526020600020906006020160010160009054906101000a900473ffffffffffffffffffffffffffffffffffffffff1673ffffffffffffffffffffffffffffffffffffffff1673ffffffffffffffffffffffffffffffffffffffff16815260200190815260200160002060008d8152602001908152602001600020546133c090919063ffffffff16565b6003600089888154811061172f577f4e487b7100000000000000000000000000000000000000000000000000000000600052603260045260246000fd5b906000526020600020906006020160010160009054906101000a900473ffffffffffffffffffffffffffffffffffffffff1673ffffffffffffffffffffffffffffffffffffffff1673ffffffffffffffffffffffffffffffffffffffff16815260200190815260200160002060008c8152602001908152602001600020819055505b5b5050505080806117c190613d50565b915050610a25565b505b60008280549050118015611874575081600081548110611814577f4e487b7100000000000000000000000000000000000000000000000000000000600052603260045260246000fd5b90600052602060002090600602016003015482600081548110611860577f4e487b7100000000000000000000000000000000000000000000000000000000600052603260045260246000fd5b906000526020600020906006020160050154145b15611a465760005b6001838054905061188d9190613c7b565b811015611a4057826001826118a29190613bcb565b815481106118d9577f4e487b7100000000000000000000000000000000000000000000000000000000600052603260045260246000fd5b9060005260206000209060060201838281548110611920577f4e487b7100000000000000000000000000000000000000000000000000000000600052603260045260246000fd5b9060005260206000209060060201600082015481600001556001820160009054906101000a900473ffffffffffffffffffffffffffffffffffffffff168160010160006101000a81548173ffffffffffffffffffffffffffffffffffffffff021916908373ffffffffffffffffffffffffffffffffffffffff1602179055506001820160149054906101000a900460ff168160010160146101000a81548160ff021916908360018111156119fd577f4e487b7100000000000000000000000000000000000000000000000000000000600052602160045260246000fd5b0217905550600282015481600201556003820154816003015560048201548160040155600582015481600501559050508080611a3890613d50565b91505061187c565b506117cb565b505050505050565b60028181548110611a5e57600080fd5b906000526020600020016000915090505481565b80600073ffffffffffffffffffffffffffffffffffffffff166001600083815260200190815260200160002060010160009054906101000a900473ffffffffffffffffffffffffffffffffffffffff1673ffffffffffffffffffffffffffffffffffffffff161415611b19576040517f08c379a0000000000000000000000000000000000000000000000000000000008152600401611b1090613acc565b60405180910390fd5b82600360003373ffffffffffffffffffffffffffffffffffffffff1673ffffffffffffffffffffffffffffffffffffffff1681526020019081526020016000206000848152602001908152602001600020541015611bac576040517f08c379a0000000000000000000000000000000000000000000000000000000008152600401611ba390613aac565b60405180910390fd5b611c0f83600360003373ffffffffffffffffffffffffffffffffffffffff1673ffffffffffffffffffffffffffffffffffffffff1681526020019081526020016000206000858152602001908152602001600020546133de90919063ffffffff16565b600360003373ffffffffffffffffffffffffffffffffffffffff1673ffffffffffffffffffffffffffffffffffffffff1681526020019081526020016000206000848152602001908152602001600020819055506001600083815260200190815260200160002060010160009054906101000a900473ffffffffffffffffffffffffffffffffffffffff1673ffffffffffffffffffffffffffffffffffffffff1663a9059cbb33856040518363ffffffff1660e01b8152600401611cd49291906139bd565b602060405180830381600087803b158015611cee57600080fd5b505af1158015611d02573d6000803e3d6000fd5b505050506040513d601f19601f82011682018060405250810190611d2691906134d8565b50505050565b6060600560008481526020019081526020016000206000836001811115611d7c577f4e487b7100000000000000000000000000000000000000000000000000000000600052602160045260246000fd5b8152602001908152602001600020805480602002602001604051908101604052809291908181526020016000905b82821015611eeb57838290600052602060002090600602016040518060e0016040529081600082015481526020016001820160009054906101000a900473ffffffffffffffffffffffffffffffffffffffff1673ffffffffffffffffffffffffffffffffffffffff1673ffffffffffffffffffffffffffffffffffffffff1681526020016001820160149054906101000a900460ff166001811115611e78577f4e487b7100000000000000000000000000000000000000000000000000000000600052602160045260246000fd5b6001811115611eb0577f4e487b7100000000000000000000000000000000000000000000000000000000600052602160045260246000fd5b815260200160028201548152602001600382015481526020016004820154815260200160058201548152505081526020019060010190611daa565b50505050905092915050565b80600360003373ffffffffffffffffffffffffffffffffffffffff1673ffffffffffffffffffffffffffffffffffffffff16815260200190815260200160002060007f45544800000000000000000000000000000000000000000000000000000000008152602001908152602001600020541015611faa576040517f08c379a0000000000000000000000000000000000000000000000000000000008152600401611fa190613a6c565b60405180910390fd5b61202d81600360003373ffffffffffffffffffffffffffffffffffffffff1673ffffffffffffffffffffffffffffffffffffffff16815260200190815260200160002060007f45544800000000000000000000000000000000000000000000000000000000008152602001908152602001600020546133de90919063ffffffff16565b600360003373ffffffffffffffffffffffffffffffffffffffff1673ffffffffffffffffffffffffffffffffffffffff16815260200190815260200160002060007f45544800000000000000000000000000000000000000000000000000000000008152602001908152602001600020819055503373ffffffffffffffffffffffffffffffffffffffff16816040516120c590613956565b60006040518083038185875af1925050503d8060008114612102576040519150601f19603f3d011682016040523d82523d6000602084013e612107565b606091505b50505050565b80600073ffffffffffffffffffffffffffffffffffffffff166001600083815260200190815260200160002060010160009054906101000a900473ffffffffffffffffffffffffffffffffffffffff1673ffffffffffffffffffffffffffffffffffffffff1614156121b4576040517f08c379a00000000000000000000000000000000000000000000000000000000081526004016121ab90613acc565b60405180910390fd5b61221783600360003373ffffffffffffffffffffffffffffffffffffffff1673ffffffffffffffffffffffffffffffffffffffff1681526020019081526020016000206000858152602001908152602001600020546133c090919063ffffffff16565b600360003373ffffffffffffffffffffffffffffffffffffffff1673ffffffffffffffffffffffffffffffffffffffff1681526020019081526020016000206000848152602001908152602001600020819055506001600083815260200190815260200160002060010160009054906101000a900473ffffffffffffffffffffffffffffffffffffffff1673ffffffffffffffffffffffffffffffffffffffff166323b872dd3330866040518463ffffffff1660e01b81526004016122de93929190613986565b602060405180830381600087803b1580156122f857600080fd5b505af115801561230c573d6000803e3d6000fd5b505050506040513d601f19601f8201168201806040525081019061233091906134d8565b50505050565b60006001811115612370577f4e487b7100000000000000000000000000000000000000000000000000000000600052602160045260246000fd5b8360018111156123a9577f4e487b7100000000000000000000000000000000000000000000000000000000600052602160045260246000fd5b1415612443576123c281836133f490919063ffffffff16565b600360003373ffffffffffffffffffffffffffffffffffffffff1673ffffffffffffffffffffffffffffffffffffffff16815260200190815260200160002060007f4554480000000000000000000000000000000000000000000000000000000000815260200190815260200160002054101561243e57600080fd5b61251a565b60018081111561247c577f4e487b7100000000000000000000000000000000000000000000000000000000600052602160045260246000fd5b8360018111156124b5577f4e487b7100000000000000000000000000000000000000000000000000000000600052602160045260246000fd5b14156125195781600360003373ffffffffffffffffffffffffffffffffffffffff1673ffffffffffffffffffffffffffffffffffffffff168152602001908152602001600020600086815260200190815260200160002054101561251857600080fd5b5b5b600060056000868152602001908152602001600020600085600181111561256a577f4e487b7100000000000000000000000000000000000000000000000000000000600052602160045260246000fd5b81526020019081526020016000209050806040518060e0016040528060045481526020013373ffffffffffffffffffffffffffffffffffffffff1681526020018660018111156125e3577f4e487b7100000000000000000000000000000000000000000000000000000000600052602160045260246000fd5b8152602001878152602001858152602001848152602001600081525090806001815401808255809150506001900390600052602060002090600602016000909190919091506000820151816000015560208201518160010160006101000a81548173ffffffffffffffffffffffffffffffffffffffff021916908373ffffffffffffffffffffffffffffffffffffffff16021790555060408201518160010160146101000a81548160ff021916908360018111156126ca577f4e487b7100000000000000000000000000000000000000000000000000000000600052602160045260246000fd5b0217905550606082015181600201556080820151816003015560a0820151816004015560c08201518160050155505060008082805490501161270d57600061271f565b6001828054905061271e9190613c7b565b5b90506000600181111561275b577f4e487b7100000000000000000000000000000000000000000000000000000000600052602160045260246000fd5b856001811115612794577f4e487b7100000000000000000000000000000000000000000000000000000000600052602160045260246000fd5b1415612c8e575b6000811115612c89578181815481106127dd577f4e487b7100000000000000000000000000000000000000000000000000000000600052603260045260246000fd5b906000526020600020906006020160040154826001836127fd9190613c7b565b81548110612834577f4e487b7100000000000000000000000000000000000000000000000000000000600052603260045260246000fd5b906000526020600020906006020160040154111561285157612c89565b6000826001836128619190613c7b565b81548110612898577f4e487b7100000000000000000000000000000000000000000000000000000000600052603260045260246000fd5b90600052602060002090600602016040518060e0016040529081600082015481526020016001820160009054906101000a900473ffffffffffffffffffffffffffffffffffffffff1673ffffffffffffffffffffffffffffffffffffffff1673ffffffffffffffffffffffffffffffffffffffff1681526020016001820160149054906101000a900460ff16600181111561295c577f4e487b7100000000000000000000000000000000000000000000000000000000600052602160045260246000fd5b6001811115612994577f4e487b7100000000000000000000000000000000000000000000000000000000600052602160045260246000fd5b815260200160028201548152602001600382015481526020016004820154815260200160058201548152505090508282815481106129fb577f4e487b7100000000000000000000000000000000000000000000000000000000600052603260045260246000fd5b906000526020600020906006020183600184612a179190613c7b565b81548110612a4e577f4e487b7100000000000000000000000000000000000000000000000000000000600052603260045260246000fd5b9060005260206000209060060201600082015481600001556001820160009054906101000a900473ffffffffffffffffffffffffffffffffffffffff168160010160006101000a81548173ffffffffffffffffffffffffffffffffffffffff021916908373ffffffffffffffffffffffffffffffffffffffff1602179055506001820160149054906101000a900460ff168160010160146101000a81548160ff02191690836001811115612b2b577f4e487b7100000000000000000000000000000000000000000000000000000000600052602160045260246000fd5b02179055506002820154816002015560038201548160030155600482015481600401556005820154816005015590505080838381548110612b95577f4e487b7100000000000000000000000000000000000000000000000000000000600052603260045260246000fd5b90600052602060002090600602016000820151816000015560208201518160010160006101000a81548173ffffffffffffffffffffffffffffffffffffffff021916908373ffffffffffffffffffffffffffffffffffffffff16021790555060408201518160010160146101000a81548160ff02191690836001811115612c45577f4e487b7100000000000000000000000000000000000000000000000000000000600052602160045260246000fd5b0217905550606082015181600201556080820151816003015560a0820151816004015560c082015181600501559050508180612c8090613d26565b9250505061279b565b6131f7565b600180811115612cc7577f4e487b7100000000000000000000000000000000000000000000000000000000600052602160045260246000fd5b856001811115612d00577f4e487b7100000000000000000000000000000000000000000000000000000000600052602160045260246000fd5b14156131f6575b60008111156131f557818181548110612d49577f4e487b7100000000000000000000000000000000000000000000000000000000600052603260045260246000fd5b90600052602060002090600602016004015482600183612d699190613c7b565b81548110612da0577f4e487b7100000000000000000000000000000000000000000000000000000000600052603260045260246000fd5b9060005260206000209060060201600401541015612dbd576131f5565b600082600183612dcd9190613c7b565b81548110612e04577f4e487b7100000000000000000000000000000000000000000000000000000000600052603260045260246000fd5b90600052602060002090600602016040518060e0016040529081600082015481526020016001820160009054906101000a900473ffffffffffffffffffffffffffffffffffffffff1673ffffffffffffffffffffffffffffffffffffffff1673ffffffffffffffffffffffffffffffffffffffff1681526020016001820160149054906101000a900460ff166001811115612ec8577f4e487b7100000000000000000000000000000000000000000000000000000000600052602160045260246000fd5b6001811115612f00577f4e487b7100000000000000000000000000000000000000000000000000000000600052602160045260246000fd5b81526020016002820154815260200160038201548152602001600482015481526020016005820154815250509050828281548110612f67577f4e487b7100000000000000000000000000000000000000000000000000000000600052603260045260246000fd5b906000526020600020906006020183600184612f839190613c7b565b81548110612fba577f4e487b7100000000000000000000000000000000000000000000000000000000600052603260045260246000fd5b9060005260206000209060060201600082015481600001556001820160009054906101000a900473ffffffffffffffffffffffffffffffffffffffff168160010160006101000a81548173ffffffffffffffffffffffffffffffffffffffff021916908373ffffffffffffffffffffffffffffffffffffffff1602179055506001820160149054906101000a900460ff168160010160146101000a81548160ff02191690836001811115613097577f4e487b7100000000000000000000000000000000000000000000000000000000600052602160045260246000fd5b02179055506002820154816002015560038201548160030155600482015481600401556005820154816005015590505080838381548110613101577f4e487b7100000000000000000000000000000000000000000000000000000000600052603260045260246000fd5b90600052602060002090600602016000820151816000015560208201518160010160006101000a81548173ffffffffffffffffffffffffffffffffffffffff021916908373ffffffffffffffffffffffffffffffffffffffff16021790555060408201518160010160146101000a81548160ff021916908360018111156131b1577f4e487b7100000000000000000000000000000000000000000000000000000000600052602160045260246000fd5b0217905550606082015181600201556080820151816003015560a0820151816004015560c0820151816005015590505081806131ec90613d26565b92505050612d07565b5b5b6004600081548092919061320a90613d50565b9190505550505050505050565b61321f6133d6565b73ffffffffffffffffffffffffffffffffffffffff1661323d610701565b73ffffffffffffffffffffffffffffffffffffffff1614613293576040517f08c379a000000000000000000000000000000000000000000000000000000000815260040161328a90613a8c565b60405180910390fd5b600073ffffffffffffffffffffffffffffffffffffffff168173ffffffffffffffffffffffffffffffffffffffff161415613303576040517f08c379a00000000000000000000000000000000000000000000000000000000081526004016132fa90613a4c565b60405180910390fd5b8073ffffffffffffffffffffffffffffffffffffffff1660008054906101000a900473ffffffffffffffffffffffffffffffffffffffff1673ffffffffffffffffffffffffffffffffffffffff167f8be0079c531659141344cd1fd0a4f28419497f9722a3daafe3b4186f6b6457e060405160405180910390a3806000806101000a81548173ffffffffffffffffffffffffffffffffffffffff021916908373ffffffffffffffffffffffffffffffffffffffff16021790555050565b600081836133ce9190613bcb565b905092915050565b600033905090565b600081836133ec9190613c7b565b905092915050565b600081836134029190613c21565b905092915050565b60008135905061341981613f01565b92915050565b60008151905061342e81613f18565b92915050565b60008135905061344381613f2f565b92915050565b60008135905061345881613f46565b92915050565b60008135905061346d81613f56565b92915050565b60006020828403121561348557600080fd5b60006134938482850161340a565b91505092915050565b600080604083850312156134af57600080fd5b60006134bd8582860161340a565b92505060206134ce85828601613434565b9150509250929050565b6000602082840312156134ea57600080fd5b60006134f88482850161341f565b91505092915050565b60006020828403121561351357600080fd5b600061352184828501613434565b91505092915050565b6000806040838503121561353d57600080fd5b600061354b85828601613434565b925050602061355c8582860161340a565b9150509250929050565b6000806040838503121561357957600080fd5b600061358785828601613434565b925050602061359885828601613449565b9150509250929050565b600080600080608085870312156135b857600080fd5b60006135c687828801613434565b94505060206135d787828801613449565b93505060406135e88782880161345e565b92505060606135f98782880161345e565b91505092959194509250565b60008060006060848603121561361a57600080fd5b600061362886828701613434565b93505060206136398682870161345e565b925050604061364a8682870161345e565b9150509250925092565b60008060006060848603121561366957600080fd5b600061367786828701613449565b935050602061368886828701613434565b92505060406136998682870161345e565b9150509250925092565b6000602082840312156136b557600080fd5b60006136c38482850161345e565b91505092915050565b600080604083850312156136df57600080fd5b60006136ed8582860161345e565b92505060206136fe85828601613434565b9150509250929050565b600061371483836138aa565b60e08301905092915050565b61372981613caf565b82525050565b61373881613caf565b82525050565b600061374982613b86565b6137538185613b9e565b935061375e83613b76565b8060005b8381101561378f5781516137768882613708565b975061378183613b91565b925050600181019050613762565b5085935050505092915050565b6137a581613ccd565b82525050565b6137b481613ccd565b82525050565b6137c381613d14565b82525050565b6137d281613d14565b82525050565b60006137e5602683613bba565b91506137f082613df7565b604082019050919050565b6000613808601283613bba565b915061381382613e46565b602082019050919050565b600061382b602083613bba565b915061383682613e6f565b602082019050919050565b600061384e601483613bba565b915061385982613e98565b602082019050919050565b6000613871600083613baf565b915061387c82613ec1565b600082019050919050565b6000613894600f83613bba565b915061389f82613ec4565b602082019050919050565b60e0820160008201516138c06000850182613938565b5060208201516138d36020850182613720565b5060408201516138e660408501826137ba565b5060608201516138f9606085018261379c565b50608082015161390c6080850182613938565b5060a082015161391f60a0850182613938565b5060c082015161393260c0850182613938565b50505050565b61394181613d0a565b82525050565b61395081613d0a565b82525050565b600061396182613864565b9150819050919050565b6000602082019050613980600083018461372f565b92915050565b600060608201905061399b600083018661372f565b6139a8602083018561372f565b6139b56040830184613947565b949350505050565b60006040820190506139d2600083018561372f565b6139df6020830184613947565b9392505050565b60006020820190508181036000830152613a00818461373e565b905092915050565b6000602082019050613a1d60008301846137ab565b92915050565b6000604082019050613a3860008301856137ab565b613a45602083018461372f565b9392505050565b60006020820190508181036000830152613a65816137d8565b9050919050565b60006020820190508181036000830152613a85816137fb565b9050919050565b60006020820190508181036000830152613aa58161381e565b9050919050565b60006020820190508181036000830152613ac581613841565b9050919050565b60006020820190508181036000830152613ae581613887565b9050919050565b6000602082019050613b016000830184613947565b92915050565b600060e082019050613b1c600083018a613947565b613b29602083018961372f565b613b3660408301886137c9565b613b4360608301876137ab565b613b506080830186613947565b613b5d60a0830185613947565b613b6a60c0830184613947565b98975050505050505050565b6000819050602082019050919050565b600081519050919050565b6000602082019050919050565b600082825260208201905092915050565b600081905092915050565b600082825260208201905092915050565b6000613bd682613d0a565b9150613be183613d0a565b9250827fffffffffffffffffffffffffffffffffffffffffffffffffffffffffffffffff03821115613c1657613c15613d99565b5b828201905092915050565b6000613c2c82613d0a565b9150613c3783613d0a565b9250817fffffffffffffffffffffffffffffffffffffffffffffffffffffffffffffffff0483118215151615613c7057613c6f613d99565b5b828202905092915050565b6000613c8682613d0a565b9150613c9183613d0a565b925082821015613ca457613ca3613d99565b5b828203905092915050565b6000613cba82613cea565b9050919050565b60008115159050919050565b6000819050919050565b6000819050613ce582613eed565b919050565b600073ffffffffffffffffffffffffffffffffffffffff82169050919050565b6000819050919050565b6000613d1f82613cd7565b9050919050565b6000613d3182613d0a565b91506000821415613d4557613d44613d99565b5b600182039050919050565b6000613d5b82613d0a565b91507fffffffffffffffffffffffffffffffffffffffffffffffffffffffffffffffff821415613d8e57613d8d613d99565b5b600182019050919050565b7f4e487b7100000000000000000000000000000000000000000000000000000000600052601160045260246000fd5b7f4e487b7100000000000000000000000000000000000000000000000000000000600052602160045260246000fd5b7f4f776e61626c653a206e6577206f776e657220697320746865207a65726f206160008201527f6464726573730000000000000000000000000000000000000000000000000000602082015250565b7f496e7375666669656e742062616c616e63650000000000000000000000000000600082015250565b7f4f776e61626c653a2063616c6c6572206973206e6f7420746865206f776e6572600082015250565b7f496e73756666696369656e742042616c616e6365000000000000000000000000600082015250565b50565b7f546f6b656e206e6f7420466f756e640000000000000000000000000000000000600082015250565b60028110613efe57613efd613dc8565b5b50565b613f0a81613caf565b8114613f1557600080fd5b50565b613f2181613cc1565b8114613f2c57600080fd5b50565b613f3881613ccd565b8114613f4357600080fd5b50565b60028110613f5357600080fd5b50565b613f5f81613d0a565b8114613f6a57600080fd5b5056fea264697066735822122045ed3a31c4915a0ad4347dac2706ed1e9ee6af6b26efb7c543cc565133734cad64736f6c63430008030033",
  "immutableReferences": {},
  "source": "//SPDX-License-Identifier: UNLICENSED\r\npragma solidity ^0.8.0;\r\npragma experimental ABIEncoderV2;\r\n\r\nimport \"./wallet.sol\";\r\n\r\ncontract Dex is Wallet {\r\n    using SafeMath for uint256;\r\n\r\n    enum Side {\r\n        BUY,\r\n        SELL\r\n    }\r\n\r\n    struct Order {\r\n        uint id;\r\n        address trader;\r\n        Side side;\r\n        bytes32 ticker;\r\n        uint amount;\r\n        uint price;\r\n        uint filled;\r\n    }\r\n\r\n// counter for Order Ids\r\n    uint public nextOrderId = 0;\r\n\r\n    mapping(bytes32 => mapping(uint => Order[])) public orderBook;\r\n\r\n    function getOrderBook(bytes32 ticker, Side side) public view returns(Order[] memory) {\r\n        return orderBook[ticker][uint(side)];\r\n    }\r\n\r\n    function createLimitOrder(bytes32 ticker, Side side, uint amount, uint price) public {\r\n    //test 1 in dexTest.js\r\n        if(side == Side.BUY){\r\n            require(balances[msg.sender][\"ETH\"] >= amount.mul(price));\r\n        }\r\n    //test 2\r\n        else if(side == Side.SELL){\r\n            require(balances[msg.sender][ticker] >= amount);\r\n        }\r\n    //Creating an Order\r\n        Order[] storage orders = orderBook[ticker][uint(side)];\r\n        orders.push(\r\n            Order(nextOrderId, msg.sender, side, ticker, amount, price, 0)\r\n        );\r\n    //tests 3 & 4 \r\n        //Bubble Sort\r\n        uint i = orders.length > 0 ? orders.length - 1 : 0;\r\n\r\n        if(side == Side.BUY){\r\n            while(i > 0){\r\n                if(orders[i - 1].price > orders[i].price){\r\n                    break;\r\n                }\r\n                Order memory toSwap = orders[i - 1];\r\n                orders[i - 1] = orders[i];\r\n                orders[i] = toSwap;\r\n                i--;\r\n            }\r\n        }\r\n        else if(side == Side.SELL){\r\n            while(i > 0){\r\n                if(orders[i - 1].price < orders[i].price){\r\n                    break;\r\n                }\r\n                Order memory toSwap = orders[i - 1];\r\n                orders[i - 1] = orders[i];\r\n                orders[i] = toSwap;\r\n                i--;\r\n            }\r\n        }\r\n        nextOrderId++; //create new order Id along with the new order\r\n    }\r\n\r\n    function createMarketOrder(Side side, bytes32 ticker, uint amount) public {\r\n    //Verify is Seller has enough tokens to Sell\r\n        if(side == Side.SELL){\r\n            require(balances[msg.sender][ticker] >= amount, \"Insufficient Balance\");\r\n        }\r\n        \r\n        uint orderBookSide; \r\n        if (side == Side.BUY){\r\n            orderBookSide = 1;\r\n        }\r\n        else {\r\n            orderBookSide = 0;\r\n        }\r\n        Order[] storage orders = orderBook[ticker][orderBookSide];\r\n\r\n        uint totalFilled = 0;\r\n\r\n        for(uint i = 0; i < orders.length && totalFilled < amount; i++){\r\n            uint leftToFill = amount.sub(totalFilled); //amount = totalFilled\r\n            uint availableToFill = orders[i].amount.sub(orders[i].filled); //orders.amount - orders.filled\r\n            uint filled = 0;\r\n            //How much we can fill from order[i]\r\n            if(availableToFill > leftToFill){ //mawrket order will be 100% filled\r\n                filled = leftToFill;\r\n            }\r\n            else { //availableToFill <= leftToFill, order[i] can only fill up to availableToFill\r\n                filled = availableToFill;\r\n            }\r\n            //Update totalFilled;\r\n            totalFilled = totalFilled.add(filled);\r\n            orders[i].filled = orders[i].filled.add(filled);\r\n            uint cost = filled.mul(orders[i].price);\r\n            \r\n        //Execute the trade & shift balances between buyer and seller\r\n            \r\n            if(side == Side.BUY) { \r\n            //Verify that the buyer has enough ETH to cover the purchase (require)\r\n                require(balances[msg.sender][\"ETH\"] >= cost);\r\n\r\n            //Transfer ETH from Buyer to Seller\r\n                balances[msg.sender][\"ETH\"] = balances[msg.sender][\"ETH\"].sub(cost); //Reduce Buyer ETH balance\r\n                balances[orders[i].trader][\"ETH\"] = balances[orders[i].trader][\"ETH\"].add(cost); //Seller gets ETH\r\n            \r\n            //Transfer tokens from Seller to Buyer\r\n                balances[msg.sender][ticker] = balances[msg.sender][ticker].add(filled); //Buyer gets tokens\r\n                balances[orders[i].trader][ticker] = balances[orders[i].trader][ticker].sub(filled); //Seller gives tokens to buyer\r\n                \r\n            }\r\n            else if(side ==Side.SELL){ //Reverse of a BUY order\r\n            //Transfer ETH from Seller to Buyer\r\n                balances[msg.sender][\"ETH\"] = balances[msg.sender][\"ETH\"].add(cost); \r\n                balances[orders[i].trader][\"ETH\"] = balances[orders[i].trader][\"ETH\"].sub(cost); \r\n            \r\n            //Transfer tokens from Buyer to Seller\r\n                balances[msg.sender][ticker] = balances[msg.sender][ticker].sub(filled); \r\n                balances[orders[i].trader][ticker] = balances[orders[i].trader][ticker].add(filled); \r\n            }\r\n        }\r\n\r\n    //Loop through the orderbook and remove orders that are 100% filled\r\n        while(orders.length > 0 &&  orders[0].filled == orders[0].amount){ //1st order must be filled first before starting to fill next order\r\n            //Remove the top element in the orders array by overwriting every element[i] with the next element[i+1]\r\n            for(uint256 i = 0; i < orders.length - 1; i++){\r\n                orders[i] = orders[i + 1];\r\n            }\r\n            orders.pop;\r\n        }\r\n    }\r\n}\r\n\r\n",
  "sourcePath": "C:/Users/Xyz Fiegalan/OneDrive/Desktop/Ivan On Tech Blockchain Academy/Programming/Truffle/Building_DEX/contracts/dex.sol",
  "compiler": {
    "name": "solc",
    "version": "0.8.3+commit.8d00100c.Emscripten.clang"
  },
  "schemaVersion": "3.3.4",
  "updatedAt": "2021-04-17T13:38:59.480Z",
  "devdoc": {
    "kind": "dev",
    "methods": {
      "owner()": {
        "details": "Returns the address of the current owner."
      },
      "renounceOwnership()": {
        "details": "Leaves the contract without owner. It will not be possible to call `onlyOwner` functions anymore. Can only be called by the current owner. NOTE: Renouncing ownership will leave the contract without an owner, thereby removing any functionality that is only available to the owner."
      },
      "transferOwnership(address)": {
        "details": "Transfers ownership of the contract to a new account (`newOwner`). Can only be called by the current owner."
      }
    },
    "version": 1
  },
  "userdoc": {
    "kind": "user",
    "methods": {},
    "version": 1
  }
}