{
  "contractName": "Wallet",
  "abi": [
    {
      "anonymous": false,
      "inputs": [
        {
          "indexed": true,
          "internalType": "address",
          "name": "previousOwner",
          "type": "address"
        },
        {
          "indexed": true,
          "internalType": "address",
          "name": "newOwner",
          "type": "address"
        }
      ],
      "name": "OwnershipTransferred",
      "type": "event"
    },
    {
      "inputs": [
        {
          "internalType": "address",
          "name": "",
          "type": "address"
        },
        {
          "internalType": "bytes32",
          "name": "",
          "type": "bytes32"
        }
      ],
      "name": "balances",
      "outputs": [
        {
          "internalType": "uint256",
          "name": "",
          "type": "uint256"
        }
      ],
      "stateMutability": "view",
      "type": "function"
    },
    {
      "inputs": [],
      "name": "owner",
      "outputs": [
        {
          "internalType": "address",
          "name": "",
          "type": "address"
        }
      ],
      "stateMutability": "view",
      "type": "function"
    },
    {
      "inputs": [],
      "name": "renounceOwnership",
      "outputs": [],
      "stateMutability": "nonpayable",
      "type": "function"
    },
    {
      "inputs": [
        {
          "internalType": "uint256",
          "name": "",
          "type": "uint256"
        }
      ],
      "name": "tokenList",
      "outputs": [
        {
          "internalType": "bytes32",
          "name": "",
          "type": "bytes32"
        }
      ],
      "stateMutability": "view",
      "type": "function"
    },
    {
      "inputs": [
        {
          "internalType": "bytes32",
          "name": "",
          "type": "bytes32"
        }
      ],
      "name": "tokenMapping",
      "outputs": [
        {
          "internalType": "bytes32",
          "name": "ticker",
          "type": "bytes32"
        },
        {
          "internalType": "address",
          "name": "tokenAddress",
          "type": "address"
        }
      ],
      "stateMutability": "view",
      "type": "function"
    },
    {
      "inputs": [
        {
          "internalType": "address",
          "name": "newOwner",
          "type": "address"
        }
      ],
      "name": "transferOwnership",
      "outputs": [],
      "stateMutability": "nonpayable",
      "type": "function"
    },
    {
      "inputs": [
        {
          "internalType": "bytes32",
          "name": "_ticker",
          "type": "bytes32"
        },
        {
          "internalType": "address",
          "name": "_tokenAddress",
          "type": "address"
        }
      ],
      "name": "addToken",
      "outputs": [],
      "stateMutability": "nonpayable",
      "type": "function"
    },
    {
      "inputs": [
        {
          "internalType": "uint256",
          "name": "_amount",
          "type": "uint256"
        },
        {
          "internalType": "bytes32",
          "name": "_ticker",
          "type": "bytes32"
        }
      ],
      "name": "deposit",
      "outputs": [],
      "stateMutability": "nonpayable",
      "type": "function"
    },
    {
      "inputs": [
        {
          "internalType": "uint256",
          "name": "_amount",
          "type": "uint256"
        },
        {
          "internalType": "bytes32",
          "name": "_ticker",
          "type": "bytes32"
        }
      ],
      "name": "withdraw",
      "outputs": [],
      "stateMutability": "nonpayable",
      "type": "function"
    },
    {
      "inputs": [],
      "name": "depositEth",
      "outputs": [],
      "stateMutability": "payable",
      "type": "function"
    },
    {
      "inputs": [
        {
          "internalType": "uint256",
          "name": "_amount",
          "type": "uint256"
        }
      ],
      "name": "withdrawEth",
      "outputs": [],
      "stateMutability": "nonpayable",
      "type": "function"
    }
  ],
  "bytecode": "0x608060405234801561001057600080fd5b5060006100216100c460201b60201c565b9050806000806101000a81548173ffffffffffffffffffffffffffffffffffffffff021916908373ffffffffffffffffffffffffffffffffffffffff1602179055508073ffffffffffffffffffffffffffffffffffffffff16600073ffffffffffffffffffffffffffffffffffffffff167f8be0079c531659141344cd1fd0a4f28419497f9722a3daafe3b4186f6b6457e060405160405180910390a3506100cc565b600033905090565b611655806100db6000396000f3fe60806040526004361061009c5760003560e01c80639776aacf116100645780639776aacf146101685780639ead722214610191578063a8d2021a146101ce578063c311d049146101f7578063c9630cb014610220578063f2fde38b146102495761009c565b80631f14df69146100a1578063439370b1146100de578063667cb4ba146100e8578063715018a6146101265780638da5cb5b1461013d575b600080fd5b3480156100ad57600080fd5b506100c860048036038101906100c39190610fe9565b610272565b6040516100d5919061138b565b60405180910390f35b6100e6610297565b005b3480156100f457600080fd5b5061010f600480360381019061010a919061104e565b610390565b60405161011d9291906112c2565b60405180910390f35b34801561013257600080fd5b5061013b6103d4565b005b34801561014957600080fd5b5061015261050e565b60405161015f919061122c565b60405180910390f35b34801561017457600080fd5b5061018f600480360381019061018a9190611077565b610537565b005b34801561019d57600080fd5b506101b860048036038101906101b391906110b3565b610672565b6040516101c591906112a7565b60405180910390f35b3480156101da57600080fd5b506101f560048036038101906101f091906110dc565b610696565b005b34801561020357600080fd5b5061021e600480360381019061021991906110b3565b610950565b005b34801561022c57600080fd5b50610247600480360381019061024291906110dc565b610b66565b005b34801561025557600080fd5b50610270600480360381019061026b9190610fc0565b610d8f565b005b6003602052816000526040600020602052806000526040600020600091509150505481565b61031a34600360003373ffffffffffffffffffffffffffffffffffffffff1673ffffffffffffffffffffffffffffffffffffffff16815260200190815260200160002060007f4554480000000000000000000000000000000000000000000000000000000000815260200190815260200160002054610f3890919063ffffffff16565b600360003373ffffffffffffffffffffffffffffffffffffffff1673ffffffffffffffffffffffffffffffffffffffff16815260200190815260200160002060007f4554480000000000000000000000000000000000000000000000000000000000815260200190815260200160002081905550565b60016020528060005260406000206000915090508060000154908060010160009054906101000a900473ffffffffffffffffffffffffffffffffffffffff16905082565b6103dc610f4e565b73ffffffffffffffffffffffffffffffffffffffff166103fa61050e565b73ffffffffffffffffffffffffffffffffffffffff1614610450576040517f08c379a00000000000000000000000000000000000000000000000000000000081526004016104479061132b565b60405180910390fd5b600073ffffffffffffffffffffffffffffffffffffffff1660008054906101000a900473ffffffffffffffffffffffffffffffffffffffff1673ffffffffffffffffffffffffffffffffffffffff167f8be0079c531659141344cd1fd0a4f28419497f9722a3daafe3b4186f6b6457e060405160405180910390a360008060006101000a81548173ffffffffffffffffffffffffffffffffffffffff021916908373ffffffffffffffffffffffffffffffffffffffff160217905550565b60008060009054906101000a900473ffffffffffffffffffffffffffffffffffffffff16905090565b61053f610f4e565b73ffffffffffffffffffffffffffffffffffffffff1661055d61050e565b73ffffffffffffffffffffffffffffffffffffffff16146105b3576040517f08c379a00000000000000000000000000000000000000000000000000000000081526004016105aa9061132b565b60405180910390fd5b60405180604001604052808381526020018273ffffffffffffffffffffffffffffffffffffffff16815250600160008481526020019081526020016000206000820151816000015560208201518160010160006101000a81548173ffffffffffffffffffffffffffffffffffffffff021916908373ffffffffffffffffffffffffffffffffffffffff16021790555090505060028290806001815401808255809150506001900390600052602060002001600090919091909150555050565b6002818154811061068257600080fd5b906000526020600020016000915090505481565b80600073ffffffffffffffffffffffffffffffffffffffff166001600083815260200190815260200160002060010160009054906101000a900473ffffffffffffffffffffffffffffffffffffffff1673ffffffffffffffffffffffffffffffffffffffff16141561073d576040517f08c379a00000000000000000000000000000000000000000000000000000000081526004016107349061136b565b60405180910390fd5b82600360003373ffffffffffffffffffffffffffffffffffffffff1673ffffffffffffffffffffffffffffffffffffffff16815260200190815260200160002060008481526020019081526020016000205410156107d0576040517f08c379a00000000000000000000000000000000000000000000000000000000081526004016107c79061134b565b60405180910390fd5b61083383600360003373ffffffffffffffffffffffffffffffffffffffff1673ffffffffffffffffffffffffffffffffffffffff168152602001908152602001600020600085815260200190815260200160002054610f5690919063ffffffff16565b600360003373ffffffffffffffffffffffffffffffffffffffff1673ffffffffffffffffffffffffffffffffffffffff1681526020019081526020016000206000848152602001908152602001600020819055506001600083815260200190815260200160002060010160009054906101000a900473ffffffffffffffffffffffffffffffffffffffff1673ffffffffffffffffffffffffffffffffffffffff1663a9059cbb33856040518363ffffffff1660e01b81526004016108f892919061127e565b602060405180830381600087803b15801561091257600080fd5b505af1158015610926573d6000803e3d6000fd5b505050506040513d601f19601f8201168201806040525081019061094a9190611025565b50505050565b80600360003373ffffffffffffffffffffffffffffffffffffffff1673ffffffffffffffffffffffffffffffffffffffff16815260200190815260200160002060007f45544800000000000000000000000000000000000000000000000000000000008152602001908152602001600020541015610a03576040517f08c379a00000000000000000000000000000000000000000000000000000000081526004016109fa9061130b565b60405180910390fd5b610a8681600360003373ffffffffffffffffffffffffffffffffffffffff1673ffffffffffffffffffffffffffffffffffffffff16815260200190815260200160002060007f4554480000000000000000000000000000000000000000000000000000000000815260200190815260200160002054610f5690919063ffffffff16565b600360003373ffffffffffffffffffffffffffffffffffffffff1673ffffffffffffffffffffffffffffffffffffffff16815260200190815260200160002060007f45544800000000000000000000000000000000000000000000000000000000008152602001908152602001600020819055503373ffffffffffffffffffffffffffffffffffffffff1681604051610b1e90611217565b60006040518083038185875af1925050503d8060008114610b5b576040519150601f19603f3d011682016040523d82523d6000602084013e610b60565b606091505b50505050565b80600073ffffffffffffffffffffffffffffffffffffffff166001600083815260200190815260200160002060010160009054906101000a900473ffffffffffffffffffffffffffffffffffffffff1673ffffffffffffffffffffffffffffffffffffffff161415610c0d576040517f08c379a0000000000000000000000000000000000000000000000000000000008152600401610c049061136b565b60405180910390fd5b610c7083600360003373ffffffffffffffffffffffffffffffffffffffff1673ffffffffffffffffffffffffffffffffffffffff168152602001908152602001600020600085815260200190815260200160002054610f3890919063ffffffff16565b600360003373ffffffffffffffffffffffffffffffffffffffff1673ffffffffffffffffffffffffffffffffffffffff1681526020019081526020016000206000848152602001908152602001600020819055506001600083815260200190815260200160002060010160009054906101000a900473ffffffffffffffffffffffffffffffffffffffff1673ffffffffffffffffffffffffffffffffffffffff166323b872dd3330866040518463ffffffff1660e01b8152600401610d3793929190611247565b602060405180830381600087803b158015610d5157600080fd5b505af1158015610d65573d6000803e3d6000fd5b505050506040513d601f19601f82011682018060405250810190610d899190611025565b50505050565b610d97610f4e565b73ffffffffffffffffffffffffffffffffffffffff16610db561050e565b73ffffffffffffffffffffffffffffffffffffffff1614610e0b576040517f08c379a0000000000000000000000000000000000000000000000000000000008152600401610e029061132b565b60405180910390fd5b600073ffffffffffffffffffffffffffffffffffffffff168173ffffffffffffffffffffffffffffffffffffffff161415610e7b576040517f08c379a0000000000000000000000000000000000000000000000000000000008152600401610e72906112eb565b60405180910390fd5b8073ffffffffffffffffffffffffffffffffffffffff1660008054906101000a900473ffffffffffffffffffffffffffffffffffffffff1673ffffffffffffffffffffffffffffffffffffffff167f8be0079c531659141344cd1fd0a4f28419497f9722a3daafe3b4186f6b6457e060405160405180910390a3806000806101000a81548173ffffffffffffffffffffffffffffffffffffffff021916908373ffffffffffffffffffffffffffffffffffffffff16021790555050565b60008183610f4691906113c2565b905092915050565b600033905090565b60008183610f649190611418565b905092915050565b600081359050610f7b816115c3565b92915050565b600081519050610f90816115da565b92915050565b600081359050610fa5816115f1565b92915050565b600081359050610fba81611608565b92915050565b600060208284031215610fd257600080fd5b6000610fe084828501610f6c565b91505092915050565b60008060408385031215610ffc57600080fd5b600061100a85828601610f6c565b925050602061101b85828601610f96565b9150509250929050565b60006020828403121561103757600080fd5b600061104584828501610f81565b91505092915050565b60006020828403121561106057600080fd5b600061106e84828501610f96565b91505092915050565b6000806040838503121561108a57600080fd5b600061109885828601610f96565b92505060206110a985828601610f6c565b9150509250929050565b6000602082840312156110c557600080fd5b60006110d384828501610fab565b91505092915050565b600080604083850312156110ef57600080fd5b60006110fd85828601610fab565b925050602061110e85828601610f96565b9150509250929050565b6111218161144c565b82525050565b6111308161146a565b82525050565b60006111436026836113b1565b915061114e826114cd565b604082019050919050565b60006111666012836113b1565b91506111718261151c565b602082019050919050565b60006111896020836113b1565b915061119482611545565b602082019050919050565b60006111ac6014836113b1565b91506111b78261156e565b602082019050919050565b60006111cf6000836113a6565b91506111da82611597565b600082019050919050565b60006111f2600f836113b1565b91506111fd8261159a565b602082019050919050565b61121181611494565b82525050565b6000611222826111c2565b9150819050919050565b60006020820190506112416000830184611118565b92915050565b600060608201905061125c6000830186611118565b6112696020830185611118565b6112766040830184611208565b949350505050565b60006040820190506112936000830185611118565b6112a06020830184611208565b9392505050565b60006020820190506112bc6000830184611127565b92915050565b60006040820190506112d76000830185611127565b6112e46020830184611118565b9392505050565b6000602082019050818103600083015261130481611136565b9050919050565b6000602082019050818103600083015261132481611159565b9050919050565b600060208201905081810360008301526113448161117c565b9050919050565b600060208201905081810360008301526113648161119f565b9050919050565b60006020820190508181036000830152611384816111e5565b9050919050565b60006020820190506113a06000830184611208565b92915050565b600081905092915050565b600082825260208201905092915050565b60006113cd82611494565b91506113d883611494565b9250827fffffffffffffffffffffffffffffffffffffffffffffffffffffffffffffffff0382111561140d5761140c61149e565b5b828201905092915050565b600061142382611494565b915061142e83611494565b9250828210156114415761144061149e565b5b828203905092915050565b600061145782611474565b9050919050565b60008115159050919050565b6000819050919050565b600073ffffffffffffffffffffffffffffffffffffffff82169050919050565b6000819050919050565b7f4e487b7100000000000000000000000000000000000000000000000000000000600052601160045260246000fd5b7f4f776e61626c653a206e6577206f776e657220697320746865207a65726f206160008201527f6464726573730000000000000000000000000000000000000000000000000000602082015250565b7f496e7375666669656e742062616c616e63650000000000000000000000000000600082015250565b7f4f776e61626c653a2063616c6c6572206973206e6f7420746865206f776e6572600082015250565b7f496e73756666696369656e742042616c616e6365000000000000000000000000600082015250565b50565b7f546f6b656e206e6f7420466f756e640000000000000000000000000000000000600082015250565b6115cc8161144c565b81146115d757600080fd5b50565b6115e38161145e565b81146115ee57600080fd5b50565b6115fa8161146a565b811461160557600080fd5b50565b61161181611494565b811461161c57600080fd5b5056fea2646970667358221220bbcdab18d97d14392c3f122d13be0db5a483196c7e6c78c8b7874288ad7617de64736f6c63430008030033",
  "immutableReferences": {},
  "source": "//SPDX-License-Identifier: UNLICENSED\r\npragma solidity ^0.8.0;\r\n\r\nimport \"../node_modules/@openzeppelin/contracts/token/ERC20/IERC20.sol\";\r\nimport \"../node_modules/@openzeppelin/contracts/utils/math/SafeMath.sol\";\r\nimport \"../node_modules/@openzeppelin/contracts/access/Ownable.sol\";\r\n\r\ncontract Wallet is Ownable {\r\n    using SafeMath for uint256;\r\n\r\n    struct Token{\r\n        bytes32 ticker;\r\n        address tokenAddress;\r\n    }\r\n\r\n    mapping(bytes32 => Token) public tokenMapping;\r\n    bytes32[] public tokenList;\r\n\r\n//address to tokens owned to balances of each token\r\n    mapping (address => mapping(bytes32 => uint256)) public balances;\r\n\r\n    modifier tokenExist(bytes32 _ticker){\r\n        require(tokenMapping[_ticker].tokenAddress != address(0), \"Token not Found\");\r\n        _;\r\n    }\r\n\r\n//adds new tokens using ticker and address in mapping\r\n//add the ticker in the token list\r\n//only owner can add tokens\r\n    function addToken(bytes32 _ticker, address _tokenAddress) external onlyOwner {\r\n        tokenMapping[_ticker] = Token(_ticker, _tokenAddress);\r\n        tokenList.push(_ticker);\r\n    }\r\n\r\n//use IERC20 Interface\r\n//require that the token exists (not equal to an uninititalized address) - use modifier\r\n//adjust the balances of msg.sender use SafeMath\r\n//deposit from msg.sender to this contract\r\n    function deposit(uint _amount, bytes32 _ticker) tokenExist(_ticker) external {\r\n        //checks using tokenExist modifier\r\n        balances[msg.sender][_ticker] = balances[msg.sender][_ticker].add(_amount); //effects\r\n        IERC20(tokenMapping[_ticker].tokenAddress).transferFrom(msg.sender, address(this), _amount); //interactions\r\n    }\r\n\r\n//use IERC20 Interface\r\n//require that the token exists (not equal to an uninititalized address) - use modifier\r\n//require that msg.sender has a balance on the token to withdraw\r\n//adjust the balances of msg.sender use SafeMath\r\n//transfer from us(this contract) to msg.sender(rightful owner)\r\n    function withdraw(uint _amount, bytes32 _ticker) tokenExist(_ticker) external {\r\n        //checks using tokenExist modifier\r\n        require(balances[msg.sender][_ticker] >= _amount, \"Insufficient Balance\");\r\n        balances[msg.sender][_ticker] = balances[msg.sender][_ticker].sub(_amount);\r\n        IERC20(tokenMapping[_ticker].tokenAddress).transfer(msg.sender, _amount);\r\n    }\r\n    \r\n    function depositEth() payable external {\r\n        balances[msg.sender][bytes32(\"ETH\")] = balances[msg.sender][bytes32(\"ETH\")].add(msg.value);\r\n    }\r\n    \r\n    function withdrawEth(uint _amount) external {\r\n        require(balances[msg.sender][bytes32(\"ETH\")] >= _amount,'Insuffient balance'); \r\n        balances[msg.sender][bytes32(\"ETH\")] = balances[msg.sender][bytes32(\"ETH\")].sub(_amount);\r\n        msg.sender.call{value: _amount}(\"\");\r\n    }\r\n\r\n\r\n}   \r\n",
  "sourcePath": "C:\\Users\\Xyz Fiegalan\\OneDrive\\Desktop\\Ivan On Tech Blockchain Academy\\Programming\\Truffle\\Building_DEX\\contracts\\wallet.sol",
  "compiler": {
    "name": "solc",
    "version": "0.8.3+commit.8d00100c.Emscripten.clang"
  },
  "schemaVersion": "3.3.4",
  "updatedAt": "2021-04-17T13:38:59.509Z",
  "devdoc": {
    "kind": "dev",
    "methods": {
      "owner()": {
        "details": "Returns the address of the current owner."
      },
      "renounceOwnership()": {
        "details": "Leaves the contract without owner. It will not be possible to call `onlyOwner` functions anymore. Can only be called by the current owner. NOTE: Renouncing ownership will leave the contract without an owner, thereby removing any functionality that is only available to the owner."
      },
      "transferOwnership(address)": {
        "details": "Transfers ownership of the contract to a new account (`newOwner`). Can only be called by the current owner."
      }
    },
    "version": 1
  },
  "userdoc": {
    "kind": "user",
    "methods": {},
    "version": 1
  }
}